{
  "abi": [
    {
      "inputs": [
        {
          "internalType": "int256",
          "name": "_count",
          "type": "int256"
        }
      ],
      "stateMutability": "nonpayable",
      "type": "constructor"
    },
    {
      "inputs": [],
      "name": "decrementCounter",
      "outputs": [],
      "stateMutability": "nonpayable",
      "type": "function"
    },
    {
      "inputs": [],
      "name": "getCount",
      "outputs": [
        {
          "internalType": "int256",
          "name": "",
          "type": "int256"
        }
      ],
      "stateMutability": "view",
      "type": "function"
    },
    {
      "inputs": [],
      "name": "incrementCounter",
      "outputs": [],
      "stateMutability": "nonpayable",
      "type": "function"
    }
  ],
  "bytecode": {
    "object": "0x608060405234801561001057600080fd5b506040516101c33803806101c383398101604081905261002f91610037565b600055610050565b60006020828403121561004957600080fd5b5051919050565b6101648061005f6000396000f3fe608060405234801561001057600080fd5b50600436106100415760003560e01c80635b34b96614610046578063a87d942c14610050578063f5c5ad8314610065575b600080fd5b61004e61006d565b005b60005460405190815260200160405180910390f35b61004e610086565b600160008082825461007f91906100ae565b9091555050565b600160008082825461007f91906100ef565b634e487b7160e01b600052601160045260246000fd5b600080821280156001600160ff1b03849003851316156100d0576100d0610098565b600160ff1b83900384128116156100e9576100e9610098565b50500190565b60008083128015600160ff1b85018412161561010d5761010d610098565b6001600160ff1b038401831381161561012857610128610098565b5050039056fea264697066735822122073752747b6078ec1cbd4512f739dbbe34d613bfd2478fa6ef24949ba37a85da064736f6c634300080f0033",
    "linkReferences": {}
  },
  "methodIdentifiers": {
    "decrementCounter()": "f5c5ad83",
    "getCount()": "a87d942c",
    "incrementCounter()": "5b34b966"
  },
  "id": 16
}