{
  "abi": [
    {
      "inputs": [
        {
          "internalType": "string",
          "name": "file",
          "type": "string"
        }
      ],
      "name": "setFile",
      "outputs": [],
      "stateMutability": "nonpayable",
      "type": "function"
    },
    {
      "inputs": [
        {
          "internalType": "address",
          "name": "",
          "type": "address"
        }
      ],
      "name": "userFiles",
      "outputs": [
        {
          "internalType": "string",
          "name": "",
          "type": "string"
        }
      ],
      "stateMutability": "view",
      "type": "function"
    }
  ],
  "bytecode": {
    "object": "0x608060405234801561001057600080fd5b506103fb806100206000396000f3fe608060405234801561001057600080fd5b50600436106100365760003560e01c8063b0b190721461003b578063e423c15814610064575b600080fd5b61004e610049366004610130565b610079565b60405161005b9190610160565b60405180910390f35b6100776100723660046101cb565b610113565b005b600060208190529081526040902080546100929061027c565b80601f01602080910402602001604051908101604052809291908181526020018280546100be9061027c565b801561010b5780601f106100e05761010080835404028352916020019161010b565b820191906000526020600020905b8154815290600101906020018083116100ee57829003601f168201915b505050505081565b33600090815260208190526040902061012c8282610305565b5050565b60006020828403121561014257600080fd5b81356001600160a01b038116811461015957600080fd5b9392505050565b600060208083528351808285015260005b8181101561018d57858101830151858201604001528201610171565b8181111561019f576000604083870101525b50601f01601f1916929092016040019392505050565b634e487b7160e01b600052604160045260246000fd5b6000602082840312156101dd57600080fd5b813567ffffffffffffffff808211156101f557600080fd5b818401915084601f83011261020957600080fd5b81358181111561021b5761021b6101b5565b604051601f8201601f19908116603f01168101908382118183101715610243576102436101b5565b8160405282815287602084870101111561025c57600080fd5b826020860160208301376000928101602001929092525095945050505050565b600181811c9082168061029057607f821691505b6020821081036102b057634e487b7160e01b600052602260045260246000fd5b50919050565b601f82111561030057600081815260208120601f850160051c810160208610156102dd5750805b601f850160051c820191505b818110156102fc578281556001016102e9565b5050505b505050565b815167ffffffffffffffff81111561031f5761031f6101b5565b6103338161032d845461027c565b846102b6565b602080601f83116001811461036857600084156103505750858301515b600019600386901b1c1916600185901b1785556102fc565b600085815260208120601f198616915b8281101561039757888601518255948401946001909101908401610378565b50858210156103b55787850151600019600388901b60f8161c191681555b5050505050600190811b0190555056fea2646970667358221220ac5ae35e4509022520ab57a70ef3eddd8c2eda7a048f36c48f87cf0a8cfa447564736f6c634300080f0033",
    "linkReferences": {}
  },
  "methodIdentifiers": {
    "setFile(string)": "e423c158",
    "userFiles(address)": "b0b19072"
  },
  "id": 16
}