{
  "abi": [
    {
      "anonymous": false,
      "inputs": [
        {
          "indexed": true,
          "internalType": "uint256",
          "name": "id",
          "type": "uint256"
        },
        {
          "indexed": true,
          "internalType": "uint256",
          "name": "parentId",
          "type": "uint256"
        },
        {
          "indexed": true,
          "internalType": "address",
          "name": "author",
          "type": "address"
        }
      ],
      "name": "NewItem",
      "type": "event"
    },
    {
      "inputs": [
        {
          "internalType": "uint256",
          "name": "parentId",
          "type": "uint256"
        },
        {
          "internalType": "string",
          "name": "contentCID",
          "type": "string"
        }
      ],
      "name": "addComment",
      "outputs": [],
      "stateMutability": "nonpayable",
      "type": "function"
    },
    {
      "inputs": [
        {
          "internalType": "string",
          "name": "contentCID",
          "type": "string"
        }
      ],
      "name": "addSessionArtifact",
      "outputs": [],
      "stateMutability": "nonpayable",
      "type": "function"
    },
    {
      "inputs": [
        {
          "internalType": "address",
          "name": "author",
          "type": "address"
        }
      ],
      "name": "getAuthorReputation",
      "outputs": [
        {
          "internalType": "int256",
          "name": "",
          "type": "int256"
        }
      ],
      "stateMutability": "view",
      "type": "function"
    },
    {
      "inputs": [
        {
          "internalType": "uint256",
          "name": "itemId",
          "type": "uint256"
        }
      ],
      "name": "getItem",
      "outputs": [
        {
          "components": [
            {
              "internalType": "enum learningSession.learningSessionArtifact",
              "name": "kind",
              "type": "uint8"
            },
            {
              "internalType": "uint256",
              "name": "id",
              "type": "uint256"
            },
            {
              "internalType": "uint256",
              "name": "parentId",
              "type": "uint256"
            },
            {
              "internalType": "address",
              "name": "author",
              "type": "address"
            },
            {
              "internalType": "uint256",
              "name": "createdAtBlock",
              "type": "uint256"
            },
            {
              "internalType": "uint256[]",
              "name": "childIds",
              "type": "uint256[]"
            },
            {
              "internalType": "string",
              "name": "contentCID",
              "type": "string"
            }
          ],
          "internalType": "struct learningSession.Item",
          "name": "",
          "type": "tuple"
        }
      ],
      "stateMutability": "view",
      "type": "function"
    },
    {
      "inputs": [
        {
          "internalType": "uint256",
          "name": "itemId",
          "type": "uint256"
        }
      ],
      "name": "getItemScore",
      "outputs": [
        {
          "internalType": "int256",
          "name": "",
          "type": "int256"
        }
      ],
      "stateMutability": "view",
      "type": "function"
    },
    {
      "inputs": [
        {
          "internalType": "uint256",
          "name": "itemId",
          "type": "uint256"
        },
        {
          "internalType": "int8",
          "name": "voteValue",
          "type": "int8"
        }
      ],
      "name": "vote",
      "outputs": [],
      "stateMutability": "nonpayable",
      "type": "function"
    }
  ],
  "bytecode": {
    "object": "0x608060405234801561001057600080fd5b50610d54806100206000396000f3fe608060405234801561001057600080fd5b50600436106100625760003560e01c80633129e77314610067578063988fd22414610090578063aa7e5683146100c2578063cdf898e2146100d7578063d1003811146100ea578063ee65024814610113575b600080fd5b61007a61007536600461088d565b610126565b604051610087919061093d565b60405180910390f35b6100b461009e36600461088d565b6000908152600160208190526040909120015490565b604051908152602001610087565b6100d56100d0366004610a86565b61034f565b005b6100d56100e5366004610acd565b610503565b6100b46100f8366004610b0a565b6001600160a01b031660009081526002602052604090205490565b6100d5610121366004610b3a565b610631565b6101706040805160e081019091528060008152602001600081526020016000815260200160006001600160a01b031681526020016000815260200160608152602001606081525090565b60008281526003602052604090206001015482146101cb5760405162461bcd60e51b8152602060048201526013602482015272125d195b48191bd95cc81b9bdd08195e1a5cdd606a1b60448201526064015b60405180910390fd5b60008281526003602052604090819020815160e081019092528054829060ff1660018111156101fc576101fc6108a6565b600181111561020d5761020d6108a6565b815260200160018201548152602001600282015481526020016003820160009054906101000a90046001600160a01b03166001600160a01b03166001600160a01b0316815260200160048201548152602001600582018054806020026020016040519081016040528092919081815260200182805480156102ad57602002820191906000526020600020905b815481526020019060010190808311610299575b505050505081526020016006820180546102c690610b70565b80601f01602080910402602001604051908101604052809291908181526020018280546102f290610b70565b801561033f5780601f106103145761010080835404028352916020019161033f565b820191906000526020600020905b81548152906001019060200180831161032257829003601f168201915b5050505050815250509050919050565b60008281526003602052604090206001015482146103af5760405162461bcd60e51b815260206004820152601a60248201527f506172656e74206974656d20646f6573206e6f7420657869737400000000000060448201526064016101c2565b6103bd600080546001019055565b6000805483825260036020818152604080852060050180546001808201835591875283872001859055815160e08101835281815280840186905280830189905233606080830182905243608084015260a0830181905260c083018a905287895295909452919095208151815495969395929391929091839160ff191690838181111561044b5761044b6108a6565b021790555060208281015160018301556040830151600283015560608301516003830180546001600160a01b0319166001600160a01b039092169190911790556080830151600483015560a083015180516104ac926005850192019061082d565b5060c082015160068201906104c19082610bf9565b50506040516001600160a01b0384169150869085907fb4bba01ed96318ae148503828dce3c6232944f11f5fa7b3281f4010f7c31934f90600090a45050505050565b610511600080546001019055565b600080546040805160e081018252838152602080820184905281830185905233606080840182905243608085015260a0840181905260c084018890528587526003909252929094208151815494959394829060ff19166001838181111561057a5761057a6108a6565b021790555060208281015160018301556040830151600283015560608301516003830180546001600160a01b0319166001600160a01b039092169190911790556080830151600483015560a083015180516105db926005850192019061082d565b5060c082015160068201906105f09082610bf9565b50506040516001600160a01b038416915060009085907fb4bba01ed96318ae148503828dce3c6232944f11f5fa7b3281f4010f7c31934f908390a450505050565b60008281526003602052604090206001015482146106875760405162461bcd60e51b8152602060048201526013602482015272125d195b48191bd95cc81b9bdd08195e1a5cdd606a1b60448201526064016101c2565b6000198160000b121580156106a0575060018160000b13155b6106fc5760405162461bcd60e51b815260206004820152602760248201527f496e76616c696420766f74652076616c75652e204d757374206265202d312c20604482015266302c206f72203160c81b60648201526084016101c2565b604080516bffffffffffffffffffffffff193360601b16602080830191909152825180830360140181526034909201835281519181019190912060008581526001835283812082825290925291812054810b9083900b8114610827576000848152600160208181526040808420868552808352908420805460ff191660ff891617905587845290829052015484820b9161079a919084900b90610ccf565b6107a49190610cf6565b600085815260016020818152604080842090920193909355600392839052902001546001600160a01b0316338114610825576001600160a01b03811660009081526002602052604081205485820b91610801919085900b90610ccf565b61080b9190610cf6565b6001600160a01b0382166000908152600260205260409020555b505b50505050565b828054828255906000526020600020908101928215610868579160200282015b8281111561086857825182559160200191906001019061084d565b50610874929150610878565b5090565b5b808211156108745760008155600101610879565b60006020828403121561089f57600080fd5b5035919050565b634e487b7160e01b600052602160045260246000fd5b600081518084526020808501945080840160005b838110156108ec578151875295820195908201906001016108d0565b509495945050505050565b6000815180845260005b8181101561091d57602081850181015186830182015201610901565b506000602082860101526020601f19601f83011685010191505092915050565b60208152600082516002811061096357634e487b7160e01b600052602160045260246000fd5b806020840152506020830151604083015260408301516060830152606083015161099860808401826001600160a01b03169052565b50608083015160a083015260a083015160e060c08401526109bd6101008401826108bc565b905060c0840151601f198483030160e08501526109da82826108f7565b95945050505050565b634e487b7160e01b600052604160045260246000fd5b600082601f830112610a0a57600080fd5b813567ffffffffffffffff80821115610a2557610a256109e3565b604051601f8301601f19908116603f01168101908282118183101715610a4d57610a4d6109e3565b81604052838152866020858801011115610a6657600080fd5b836020870160208301376000602085830101528094505050505092915050565b60008060408385031215610a9957600080fd5b82359150602083013567ffffffffffffffff811115610ab757600080fd5b610ac3858286016109f9565b9150509250929050565b600060208284031215610adf57600080fd5b813567ffffffffffffffff811115610af657600080fd5b610b02848285016109f9565b949350505050565b600060208284031215610b1c57600080fd5b81356001600160a01b0381168114610b3357600080fd5b9392505050565b60008060408385031215610b4d57600080fd5b8235915060208301358060000b8114610b6557600080fd5b809150509250929050565b600181811c90821680610b8457607f821691505b602082108103610ba457634e487b7160e01b600052602260045260246000fd5b50919050565b601f821115610bf457600081815260208120601f850160051c81016020861015610bd15750805b601f850160051c820191505b81811015610bf057828155600101610bdd565b5050505b505050565b815167ffffffffffffffff811115610c1357610c136109e3565b610c2781610c218454610b70565b84610baa565b602080601f831160018114610c5c5760008415610c445750858301515b600019600386901b1c1916600185901b178555610bf0565b600085815260208120601f198616915b82811015610c8b57888601518255948401946001909101908401610c6c565b5085821015610ca95787850151600019600388901b60f8161c191681555b5050505050600190811b01905550565b634e487b7160e01b600052601160045260246000fd5b8181036000831280158383131683831282161715610cef57610cef610cb9565b5092915050565b8082018281126000831280158216821582161715610d1657610d16610cb9565b50509291505056fea264697066735822122030f90f16adbccbfa4fe26a061e6f20b5d85ca7b3f4c0b94dc06b418cef9f275364736f6c63430008110033",
    "linkReferences": {}
  },
  "methodIdentifiers": {
    "addComment(uint256,string)": "aa7e5683",
    "addSessionArtifact(string)": "cdf898e2",
    "getAuthorReputation(address)": "d1003811",
    "getItem(uint256)": "3129e773",
    "getItemScore(uint256)": "988fd224",
    "vote(uint256,int8)": "ee650248"
  },
  "id": 23
}